S00E000054494D4552312E7372656364
S11300000C942A000C9434000C9434000C943400A6
S11300100C9434000C9434000C9434000C9434008C
S11300200C9434000C9434000C9434000C9434007C
S11300300C9434000C9434000C9434000C9434006C
S11300400C9434000C9434000C9434000C9434005C
S11300500C94340011241FBECFE5D4E0DEBFCDBF25
S11300600E9447000C9450000C94000085E08EBD63
S11300708AE090E09BBD8ABD1DBC1CBC08B604FE92
S1130080FDCF1DBC1CBC88B7846088BF08958FEF6A
S113009087BB18BA88B3809588BB0E943600FACF14
S10700A0F894FFCFFE
S9030000FC
